{
  "_format": "hh-sol-artifact-1",
  "contractName": "OpenContent",
  "sourceName": "contracts/OpenContent.sol",
  "abi": [
    {
      "anonymous": false,
      "inputs": [
        {
          "indexed": false,
          "internalType": "bytes32",
          "name": "postId",
          "type": "bytes32"
        },
        {
          "indexed": false,
          "internalType": "string",
          "name": "nameOfPost",
          "type": "string"
        },
        {
          "indexed": false,
          "internalType": "string",
          "name": "postDescription",
          "type": "string"
        },
        {
          "indexed": false,
          "internalType": "string",
          "name": "thumbnailUrl",
          "type": "string"
        },
        {
          "indexed": false,
          "internalType": "string",
          "name": "postContent",
          "type": "string"
        },
        {
          "indexed": false,
          "internalType": "string",
          "name": "date",
          "type": "string"
        },
        {
          "indexed": false,
          "internalType": "string",
          "name": "audioTitle",
          "type": "string"
        },
        {
          "indexed": false,
          "internalType": "string",
          "name": "audioUrl",
          "type": "string"
        },
        {
          "indexed": false,
          "internalType": "string",
          "name": "audioThumbnail",
          "type": "string"
        },
        {
          "indexed": false,
          "internalType": "string",
          "name": "authorName",
          "type": "string"
        },
        {
          "indexed": false,
          "internalType": "string",
          "name": "authorThumbnail",
          "type": "string"
        },
        {
          "indexed": false,
          "internalType": "address",
          "name": "owner",
          "type": "address"
        }
      ],
      "name": "AudioPost",
      "type": "event"
    },
    {
      "anonymous": false,
      "inputs": [
        {
          "indexed": false,
          "internalType": "bytes32",
          "name": "postId",
          "type": "bytes32"
        },
        {
          "indexed": false,
          "internalType": "string",
          "name": "nameOfPost",
          "type": "string"
        },
        {
          "indexed": false,
          "internalType": "string",
          "name": "postDescription",
          "type": "string"
        },
        {
          "indexed": false,
          "internalType": "string",
          "name": "thumbnailUrl",
          "type": "string"
        },
        {
          "indexed": false,
          "internalType": "string",
          "name": "postContent",
          "type": "string"
        },
        {
          "indexed": false,
          "internalType": "string",
          "name": "date",
          "type": "string"
        },
        {
          "indexed": false,
          "internalType": "string",
          "name": "authorName",
          "type": "string"
        },
        {
          "indexed": false,
          "internalType": "string",
          "name": "authorThumbnail",
          "type": "string"
        },
        {
          "indexed": false,
          "internalType": "address",
          "name": "owner",
          "type": "address"
        }
      ],
      "name": "BlogPost",
      "type": "event"
    },
    {
      "anonymous": false,
      "inputs": [
        {
          "indexed": false,
          "internalType": "bytes32",
          "name": "postId",
          "type": "bytes32"
        },
        {
          "indexed": false,
          "internalType": "string",
          "name": "nameOfPost",
          "type": "string"
        },
        {
          "indexed": false,
          "internalType": "string",
          "name": "postDescription",
          "type": "string"
        },
        {
          "indexed": false,
          "internalType": "string",
          "name": "thumbnailUrl",
          "type": "string"
        },
        {
          "indexed": false,
          "internalType": "string",
          "name": "postContent",
          "type": "string"
        },
        {
          "indexed": false,
          "internalType": "string",
          "name": "date",
          "type": "string"
        },
        {
          "indexed": false,
          "internalType": "string",
          "name": "videoTitle",
          "type": "string"
        },
        {
          "indexed": false,
          "internalType": "string",
          "name": "videoUrl",
          "type": "string"
        },
        {
          "indexed": false,
          "internalType": "string",
          "name": "videoThumbnail",
          "type": "string"
        },
        {
          "indexed": false,
          "internalType": "string",
          "name": "authorName",
          "type": "string"
        },
        {
          "indexed": false,
          "internalType": "string",
          "name": "authorThumbnail",
          "type": "string"
        },
        {
          "indexed": false,
          "internalType": "address",
          "name": "owner",
          "type": "address"
        }
      ],
      "name": "VlogPost",
      "type": "event"
    },
    {
      "inputs": [
        {
          "components": [
            {
              "internalType": "string",
              "name": "nameOfPost",
              "type": "string"
            },
            {
              "internalType": "string",
              "name": "postDescription",
              "type": "string"
            },
            {
              "internalType": "string",
              "name": "thumbnailUrl",
              "type": "string"
            },
            {
              "internalType": "string",
              "name": "postContent",
              "type": "string"
            },
            {
              "internalType": "string",
              "name": "date",
              "type": "string"
            },
            {
              "internalType": "string",
              "name": "audioTitle",
              "type": "string"
            },
            {
              "internalType": "string",
              "name": "audioUrl",
              "type": "string"
            },
            {
              "internalType": "string",
              "name": "audioThumbnail",
              "type": "string"
            },
            {
              "internalType": "string",
              "name": "authorName",
              "type": "string"
            },
            {
              "internalType": "string",
              "name": "authorThumbnail",
              "type": "string"
            }
          ],
          "internalType": "struct OpenContent.AudioStruct",
          "name": "data",
          "type": "tuple"
        }
      ],
      "name": "createNewAudioPost",
      "outputs": [],
      "stateMutability": "nonpayable",
      "type": "function"
    },
    {
      "inputs": [
        {
          "components": [
            {
              "internalType": "string",
              "name": "nameOfPost",
              "type": "string"
            },
            {
              "internalType": "string",
              "name": "postDescription",
              "type": "string"
            },
            {
              "internalType": "string",
              "name": "thumbnailUrl",
              "type": "string"
            },
            {
              "internalType": "string",
              "name": "postContent",
              "type": "string"
            },
            {
              "internalType": "string",
              "name": "authorName",
              "type": "string"
            },
            {
              "internalType": "string",
              "name": "authorThumbnail",
              "type": "string"
            },
            {
              "internalType": "string",
              "name": "date",
              "type": "string"
            }
          ],
          "internalType": "struct OpenContent.BlogStuct",
          "name": "data",
          "type": "tuple"
        }
      ],
      "name": "createNewBlogPost",
      "outputs": [],
      "stateMutability": "nonpayable",
      "type": "function"
    },
    {
      "inputs": [
        {
          "components": [
            {
              "internalType": "string",
              "name": "nameOfPost",
              "type": "string"
            },
            {
              "internalType": "string",
              "name": "postDescription",
              "type": "string"
            },
            {
              "internalType": "string",
              "name": "thumbnailUrl",
              "type": "string"
            },
            {
              "internalType": "string",
              "name": "postContent",
              "type": "string"
            },
            {
              "internalType": "string",
              "name": "date",
              "type": "string"
            },
            {
              "internalType": "string",
              "name": "videoTitle",
              "type": "string"
            },
            {
              "internalType": "string",
              "name": "videoUrl",
              "type": "string"
            },
            {
              "internalType": "string",
              "name": "videoThumbnail",
              "type": "string"
            },
            {
              "internalType": "string",
              "name": "authorName",
              "type": "string"
            },
            {
              "internalType": "string",
              "name": "authorThumbnail",
              "type": "string"
            }
          ],
          "internalType": "struct OpenContent.VlogStruct",
          "name": "data",
          "type": "tuple"
        }
      ],
      "name": "createNewVlogPost",
      "outputs": [],
      "stateMutability": "nonpayable",
      "type": "function"
    },
    {
      "inputs": [
        {
          "internalType": "bytes32",
          "name": "",
          "type": "bytes32"
        }
      ],
      "name": "idToNewAudioPost",
      "outputs": [
        {
          "internalType": "bytes32",
          "name": "postId",
          "type": "bytes32"
        },
        {
          "internalType": "string",
          "name": "nameOfPost",
          "type": "string"
        },
        {
          "internalType": "string",
          "name": "postDescription",
          "type": "string"
        },
        {
          "internalType": "string",
          "name": "thumbnailUrl",
          "type": "string"
        },
        {
          "internalType": "string",
          "name": "postContent",
          "type": "string"
        },
        {
          "internalType": "string",
          "name": "date",
          "type": "string"
        },
        {
          "internalType": "string",
          "name": "audioTitle",
          "type": "string"
        },
        {
          "internalType": "string",
          "name": "audioUrl",
          "type": "string"
        },
        {
          "internalType": "string",
          "name": "audioThumbnail",
          "type": "string"
        },
        {
          "internalType": "string",
          "name": "authorName",
          "type": "string"
        },
        {
          "internalType": "string",
          "name": "authorThumbnail",
          "type": "string"
        },
        {
          "internalType": "address",
          "name": "owner",
          "type": "address"
        }
      ],
      "stateMutability": "view",
      "type": "function"
    },
    {
      "inputs": [
        {
          "internalType": "bytes32",
          "name": "",
          "type": "bytes32"
        }
      ],
      "name": "idToNewBlogPost",
      "outputs": [
        {
          "internalType": "bytes32",
          "name": "postId",
          "type": "bytes32"
        },
        {
          "internalType": "string",
          "name": "nameOfPost",
          "type": "string"
        },
        {
          "internalType": "string",
          "name": "postDescription",
          "type": "string"
        },
        {
          "internalType": "string",
          "name": "thumbnailUrl",
          "type": "string"
        },
        {
          "internalType": "string",
          "name": "postContent",
          "type": "string"
        },
        {
          "internalType": "string",
          "name": "date",
          "type": "string"
        },
        {
          "internalType": "string",
          "name": "authorName",
          "type": "string"
        },
        {
          "internalType": "string",
          "name": "authorThumbnail",
          "type": "string"
        },
        {
          "internalType": "address",
          "name": "owner",
          "type": "address"
        }
      ],
      "stateMutability": "view",
      "type": "function"
    },
    {
      "inputs": [
        {
          "internalType": "bytes32",
          "name": "",
          "type": "bytes32"
        }
      ],
      "name": "idToNewVlogPost",
      "outputs": [
        {
          "internalType": "bytes32",
          "name": "postId",
          "type": "bytes32"
        },
        {
          "internalType": "string",
          "name": "nameOfPost",
          "type": "string"
        },
        {
          "internalType": "string",
          "name": "postDescription",
          "type": "string"
        },
        {
          "internalType": "string",
          "name": "thumbnailUrl",
          "type": "string"
        },
        {
          "internalType": "string",
          "name": "postContent",
          "type": "string"
        },
        {
          "internalType": "string",
          "name": "date",
          "type": "string"
        },
        {
          "internalType": "string",
          "name": "videoTitle",
          "type": "string"
        },
        {
          "internalType": "string",
          "name": "videoUrl",
          "type": "string"
        },
        {
          "internalType": "string",
          "name": "videoThumbnail",
          "type": "string"
        },
        {
          "internalType": "string",
          "name": "authorName",
          "type": "string"
        },
        {
          "internalType": "string",
          "name": "authorThumbnail",
          "type": "string"
        },
        {
          "internalType": "address",
          "name": "owner",
          "type": "address"
        }
      ],
      "stateMutability": "view",
      "type": "function"
    }
  ],
  "bytecode": "0x608060405234801561001057600080fd5b50612646806100206000396000f3fe608060405234801561001057600080fd5b50600436106100625760003560e01c80631d2856c614610067578063208b29bd1461008357806323a66ac6146100be57806343c2572f146100da578063e502eed114610115578063ff666e671461014d575b600080fd5b610081600480360381019061007c9190611d64565b610169565b005b61009d60048036038101906100989190611de3565b61044d565b6040516100b59c9b9a99989796959493929190611ee8565b60405180910390f35b6100d860048036038101906100d39190612160565b610a1d565b005b6100f460048036038101906100ef9190611de3565b610c74565b60405161010c9c9b9a99989796959493929190611ee8565b60405180910390f35b61012f600480360381019061012a9190611de3565b611244565b604051610144999897969594939291906121a9565b60405180910390f35b61016760048036038101906101629190612475565b61166a565b005b600033308360000151846020015185604001518660600151876080015160405160200161019c9796959493929190612542565b60405160208183030381529060405280519060200120905060405180610180016040528082815260200183600001518152602001836020015181526020018360400151815260200183606001518152602001836080015181526020018360a0015181526020018360c0015181526020018360e001518152602001836101000151815260200183610120015181526020013373ffffffffffffffffffffffffffffffffffffffff1681525060008083815260200190815260200160002060008201518160000155602082015181600101908051906020019061027e92919061194f565b50604082015181600201908051906020019061029b92919061194f565b5060608201518160030190805190602001906102b892919061194f565b5060808201518160040190805190602001906102d592919061194f565b5060a08201518160050190805190602001906102f292919061194f565b5060c082015181600601908051906020019061030f92919061194f565b5060e082015181600701908051906020019061032c92919061194f565b5061010082015181600801908051906020019061034a92919061194f565b5061012082015181600901908051906020019061036892919061194f565b5061014082015181600a01908051906020019061038692919061194f565b5061016082015181600b0160006101000a81548173ffffffffffffffffffffffffffffffffffffffff021916908373ffffffffffffffffffffffffffffffffffffffff1602179055509050507f2d71fbae41b7e3e332caa6f57ac9caf5edbccd774c4edef54d2e3776cd178e0281836000015184602001518560400151866060015187608001518860a001518960c001518a60e001518b61010001518c6101200151336040516104419c9b9a99989796959493929190611ee8565b60405180910390a15050565b6002602052806000526040600020600091509050806000015490806001018054610476906125de565b80601f01602080910402602001604051908101604052809291908181526020018280546104a2906125de565b80156104ef5780601f106104c4576101008083540402835291602001916104ef565b820191906000526020600020905b8154815290600101906020018083116104d257829003601f168201915b505050505090806002018054610504906125de565b80601f0160208091040260200160405190810160405280929190818152602001828054610530906125de565b801561057d5780601f106105525761010080835404028352916020019161057d565b820191906000526020600020905b81548152906001019060200180831161056057829003601f168201915b505050505090806003018054610592906125de565b80601f01602080910402602001604051908101604052809291908181526020018280546105be906125de565b801561060b5780601f106105e05761010080835404028352916020019161060b565b820191906000526020600020905b8154815290600101906020018083116105ee57829003601f168201915b505050505090806004018054610620906125de565b80601f016020809104026020016040519081016040528092919081815260200182805461064c906125de565b80156106995780601f1061066e57610100808354040283529160200191610699565b820191906000526020600020905b81548152906001019060200180831161067c57829003601f168201915b5050505050908060050180546106ae906125de565b80601f01602080910402602001604051908101604052809291908181526020018280546106da906125de565b80156107275780601f106106fc57610100808354040283529160200191610727565b820191906000526020600020905b81548152906001019060200180831161070a57829003601f168201915b50505050509080600601805461073c906125de565b80601f0160208091040260200160405190810160405280929190818152602001828054610768906125de565b80156107b55780601f1061078a576101008083540402835291602001916107b5565b820191906000526020600020905b81548152906001019060200180831161079857829003601f168201915b5050505050908060070180546107ca906125de565b80601f01602080910402602001604051908101604052809291908181526020018280546107f6906125de565b80156108435780601f1061081857610100808354040283529160200191610843565b820191906000526020600020905b81548152906001019060200180831161082657829003601f168201915b505050505090806008018054610858906125de565b80601f0160208091040260200160405190810160405280929190818152602001828054610884906125de565b80156108d15780601f106108a6576101008083540402835291602001916108d1565b820191906000526020600020905b8154815290600101906020018083116108b457829003601f168201915b5050505050908060090180546108e6906125de565b80601f0160208091040260200160405190810160405280929190818152602001828054610912906125de565b801561095f5780601f106109345761010080835404028352916020019161095f565b820191906000526020600020905b81548152906001019060200180831161094257829003601f168201915b50505050509080600a018054610974906125de565b80601f01602080910402602001604051908101604052809291908181526020018280546109a0906125de565b80156109ed5780601f106109c2576101008083540402835291602001916109ed565b820191906000526020600020905b8154815290600101906020018083116109d057829003601f168201915b50505050509080600b0160009054906101000a900473ffffffffffffffffffffffffffffffffffffffff1690508c565b6000333083600001518460200151856040015186606001518760c00151604051602001610a509796959493929190612542565b604051602081830303815290604052805190602001209050604051806101200160405280828152602001836000015181526020018360200151815260200183604001518152602001836060015181526020018360c001518152602001836080015181526020018360a0015181526020013373ffffffffffffffffffffffffffffffffffffffff1681525060016000838152602001908152602001600020600082015181600001556020820151816001019080519060200190610b1392919061194f565b506040820151816002019080519060200190610b3092919061194f565b506060820151816003019080519060200190610b4d92919061194f565b506080820151816004019080519060200190610b6a92919061194f565b5060a0820151816005019080519060200190610b8792919061194f565b5060c0820151816006019080519060200190610ba492919061194f565b5060e0820151816007019080519060200190610bc192919061194f565b506101008201518160080160006101000a81548173ffffffffffffffffffffffffffffffffffffffff021916908373ffffffffffffffffffffffffffffffffffffffff1602179055509050507fb4add26760763357810fcd983075c42614ce7504eed08aca5460ac6283d2ec678183600001518460200151856040015186606001518760c0015188608001518960a0015133604051610c68999897969594939291906121a9565b60405180910390a15050565b6000602052806000526040600020600091509050806000015490806001018054610c9d906125de565b80601f0160208091040260200160405190810160405280929190818152602001828054610cc9906125de565b8015610d165780601f10610ceb57610100808354040283529160200191610d16565b820191906000526020600020905b815481529060010190602001808311610cf957829003601f168201915b505050505090806002018054610d2b906125de565b80601f0160208091040260200160405190810160405280929190818152602001828054610d57906125de565b8015610da45780601f10610d7957610100808354040283529160200191610da4565b820191906000526020600020905b815481529060010190602001808311610d8757829003601f168201915b505050505090806003018054610db9906125de565b80601f0160208091040260200160405190810160405280929190818152602001828054610de5906125de565b8015610e325780601f10610e0757610100808354040283529160200191610e32565b820191906000526020600020905b815481529060010190602001808311610e1557829003601f168201915b505050505090806004018054610e47906125de565b80601f0160208091040260200160405190810160405280929190818152602001828054610e73906125de565b8015610ec05780601f10610e9557610100808354040283529160200191610ec0565b820191906000526020600020905b815481529060010190602001808311610ea357829003601f168201915b505050505090806005018054610ed5906125de565b80601f0160208091040260200160405190810160405280929190818152602001828054610f01906125de565b8015610f4e5780601f10610f2357610100808354040283529160200191610f4e565b820191906000526020600020905b815481529060010190602001808311610f3157829003601f168201915b505050505090806006018054610f63906125de565b80601f0160208091040260200160405190810160405280929190818152602001828054610f8f906125de565b8015610fdc5780601f10610fb157610100808354040283529160200191610fdc565b820191906000526020600020905b815481529060010190602001808311610fbf57829003601f168201915b505050505090806007018054610ff1906125de565b80601f016020809104026020016040519081016040528092919081815260200182805461101d906125de565b801561106a5780601f1061103f5761010080835404028352916020019161106a565b820191906000526020600020905b81548152906001019060200180831161104d57829003601f168201915b50505050509080600801805461107f906125de565b80601f01602080910402602001604051908101604052809291908181526020018280546110ab906125de565b80156110f85780601f106110cd576101008083540402835291602001916110f8565b820191906000526020600020905b8154815290600101906020018083116110db57829003601f168201915b50505050509080600901805461110d906125de565b80601f0160208091040260200160405190810160405280929190818152602001828054611139906125de565b80156111865780601f1061115b57610100808354040283529160200191611186565b820191906000526020600020905b81548152906001019060200180831161116957829003601f168201915b50505050509080600a01805461119b906125de565b80601f01602080910402602001604051908101604052809291908181526020018280546111c7906125de565b80156112145780601f106111e957610100808354040283529160200191611214565b820191906000526020600020905b8154815290600101906020018083116111f757829003601f168201915b50505050509080600b0160009054906101000a900473ffffffffffffffffffffffffffffffffffffffff1690508c565b600160205280600052604060002060009150905080600001549080600101805461126d906125de565b80601f0160208091040260200160405190810160405280929190818152602001828054611299906125de565b80156112e65780601f106112bb576101008083540402835291602001916112e6565b820191906000526020600020905b8154815290600101906020018083116112c957829003601f168201915b5050505050908060020180546112fb906125de565b80601f0160208091040260200160405190810160405280929190818152602001828054611327906125de565b80156113745780601f1061134957610100808354040283529160200191611374565b820191906000526020600020905b81548152906001019060200180831161135757829003601f168201915b505050505090806003018054611389906125de565b80601f01602080910402602001604051908101604052809291908181526020018280546113b5906125de565b80156114025780601f106113d757610100808354040283529160200191611402565b820191906000526020600020905b8154815290600101906020018083116113e557829003601f168201915b505050505090806004018054611417906125de565b80601f0160208091040260200160405190810160405280929190818152602001828054611443906125de565b80156114905780601f1061146557610100808354040283529160200191611490565b820191906000526020600020905b81548152906001019060200180831161147357829003601f168201915b5050505050908060050180546114a5906125de565b80601f01602080910402602001604051908101604052809291908181526020018280546114d1906125de565b801561151e5780601f106114f35761010080835404028352916020019161151e565b820191906000526020600020905b81548152906001019060200180831161150157829003601f168201915b505050505090806006018054611533906125de565b80601f016020809104026020016040519081016040528092919081815260200182805461155f906125de565b80156115ac5780601f10611581576101008083540402835291602001916115ac565b820191906000526020600020905b81548152906001019060200180831161158f57829003601f168201915b5050505050908060070180546115c1906125de565b80601f01602080910402602001604051908101604052809291908181526020018280546115ed906125de565b801561163a5780601f1061160f5761010080835404028352916020019161163a565b820191906000526020600020905b81548152906001019060200180831161161d57829003601f168201915b5050505050908060080160009054906101000a900473ffffffffffffffffffffffffffffffffffffffff16905089565b600033308360000151846020015185604001518660600151876080015160405160200161169d9796959493929190612542565b60405160208183030381529060405280519060200120905060405180610180016040528082815260200183600001518152602001836020015181526020018360400151815260200183606001518152602001836080015181526020018360a0015181526020018360c0015181526020018360e001518152602001836101000151815260200183610120015181526020013373ffffffffffffffffffffffffffffffffffffffff168152506002600083815260200190815260200160002060008201518160000155602082015181600101908051906020019061178092919061194f565b50604082015181600201908051906020019061179d92919061194f565b5060608201518160030190805190602001906117ba92919061194f565b5060808201518160040190805190602001906117d792919061194f565b5060a08201518160050190805190602001906117f492919061194f565b5060c082015181600601908051906020019061181192919061194f565b5060e082015181600701908051906020019061182e92919061194f565b5061010082015181600801908051906020019061184c92919061194f565b5061012082015181600901908051906020019061186a92919061194f565b5061014082015181600a01908051906020019061188892919061194f565b5061016082015181600b0160006101000a81548173ffffffffffffffffffffffffffffffffffffffff021916908373ffffffffffffffffffffffffffffffffffffffff1602179055509050507f673cefa06d6bd968e5478088b9c12222e125676fbbb1fe9fbe991b153bdf398b81836000015184602001518560400151866060015187608001518860a001518960c001518a60e001518b61010001518c6101200151336040516119439c9b9a99989796959493929190611ee8565b60405180910390a15050565b82805461195b906125de565b90600052602060002090601f01602090048101928261197d57600085556119c4565b82601f1061199657805160ff19168380011785556119c4565b828001600101855582156119c4579182015b828111156119c35782518255916020019190600101906119a8565b5b5090506119d191906119d5565b5090565b5b808211156119ee5760008160009055506001016119d6565b5090565b6000604051905090565b600080fd5b600080fd5b600080fd5b6000601f19601f8301169050919050565b7f4e487b7100000000000000000000000000000000000000000000000000000000600052604160045260246000fd5b611a5482611a0b565b810181811067ffffffffffffffff82111715611a7357611a72611a1c565b5b80604052505050565b6000611a866119f2565b9050611a928282611a4b565b919050565b600080fd5b600080fd5b600080fd5b600067ffffffffffffffff821115611ac157611ac0611a1c565b5b611aca82611a0b565b9050602081019050919050565b82818337600083830152505050565b6000611af9611af484611aa6565b611a7c565b905082815260208101848484011115611b1557611b14611aa1565b5b611b20848285611ad7565b509392505050565b600082601f830112611b3d57611b3c611a9c565b5b8135611b4d848260208601611ae6565b91505092915050565b60006101408284031215611b6d57611b6c611a06565b5b611b78610140611a7c565b9050600082013567ffffffffffffffff811115611b9857611b97611a97565b5b611ba484828501611b28565b600083015250602082013567ffffffffffffffff811115611bc857611bc7611a97565b5b611bd484828501611b28565b602083015250604082013567ffffffffffffffff811115611bf857611bf7611a97565b5b611c0484828501611b28565b604083015250606082013567ffffffffffffffff811115611c2857611c27611a97565b5b611c3484828501611b28565b606083015250608082013567ffffffffffffffff811115611c5857611c57611a97565b5b611c6484828501611b28565b60808301525060a082013567ffffffffffffffff811115611c8857611c87611a97565b5b611c9484828501611b28565b60a08301525060c082013567ffffffffffffffff811115611cb857611cb7611a97565b5b611cc484828501611b28565b60c08301525060e082013567ffffffffffffffff811115611ce857611ce7611a97565b5b611cf484828501611b28565b60e08301525061010082013567ffffffffffffffff811115611d1957611d18611a97565b5b611d2584828501611b28565b6101008301525061012082013567ffffffffffffffff811115611d4b57611d4a611a97565b5b611d5784828501611b28565b6101208301525092915050565b600060208284031215611d7a57611d796119fc565b5b600082013567ffffffffffffffff811115611d9857611d97611a01565b5b611da484828501611b56565b91505092915050565b6000819050919050565b611dc081611dad565b8114611dcb57600080fd5b50565b600081359050611ddd81611db7565b92915050565b600060208284031215611df957611df86119fc565b5b6000611e0784828501611dce565b91505092915050565b611e1981611dad565b82525050565b600081519050919050565b600082825260208201905092915050565b60005b83811015611e59578082015181840152602081019050611e3e565b83811115611e68576000848401525b50505050565b6000611e7982611e1f565b611e838185611e2a565b9350611e93818560208601611e3b565b611e9c81611a0b565b840191505092915050565b600073ffffffffffffffffffffffffffffffffffffffff82169050919050565b6000611ed282611ea7565b9050919050565b611ee281611ec7565b82525050565b600061018082019050611efe600083018f611e10565b8181036020830152611f10818e611e6e565b90508181036040830152611f24818d611e6e565b90508181036060830152611f38818c611e6e565b90508181036080830152611f4c818b611e6e565b905081810360a0830152611f60818a611e6e565b905081810360c0830152611f748189611e6e565b905081810360e0830152611f888188611e6e565b9050818103610100830152611f9d8187611e6e565b9050818103610120830152611fb28186611e6e565b9050818103610140830152611fc78185611e6e565b9050611fd7610160830184611ed9565b9d9c50505050505050505050505050565b600060e08284031215611ffe57611ffd611a06565b5b61200860e0611a7c565b9050600082013567ffffffffffffffff81111561202857612027611a97565b5b61203484828501611b28565b600083015250602082013567ffffffffffffffff81111561205857612057611a97565b5b61206484828501611b28565b602083015250604082013567ffffffffffffffff81111561208857612087611a97565b5b61209484828501611b28565b604083015250606082013567ffffffffffffffff8111156120b8576120b7611a97565b5b6120c484828501611b28565b606083015250608082013567ffffffffffffffff8111156120e8576120e7611a97565b5b6120f484828501611b28565b60808301525060a082013567ffffffffffffffff81111561211857612117611a97565b5b61212484828501611b28565b60a08301525060c082013567ffffffffffffffff81111561214857612147611a97565b5b61215484828501611b28565b60c08301525092915050565b600060208284031215612176576121756119fc565b5b600082013567ffffffffffffffff81111561219457612193611a01565b5b6121a084828501611fe8565b91505092915050565b6000610120820190506121bf600083018c611e10565b81810360208301526121d1818b611e6e565b905081810360408301526121e5818a611e6e565b905081810360608301526121f98189611e6e565b9050818103608083015261220d8188611e6e565b905081810360a08301526122218187611e6e565b905081810360c08301526122358186611e6e565b905081810360e08301526122498185611e6e565b9050612259610100830184611ed9565b9a9950505050505050505050565b6000610140828403121561227e5761227d611a06565b5b612289610140611a7c565b9050600082013567ffffffffffffffff8111156122a9576122a8611a97565b5b6122b584828501611b28565b600083015250602082013567ffffffffffffffff8111156122d9576122d8611a97565b5b6122e584828501611b28565b602083015250604082013567ffffffffffffffff81111561230957612308611a97565b5b61231584828501611b28565b604083015250606082013567ffffffffffffffff81111561233957612338611a97565b5b61234584828501611b28565b606083015250608082013567ffffffffffffffff81111561236957612368611a97565b5b61237584828501611b28565b60808301525060a082013567ffffffffffffffff81111561239957612398611a97565b5b6123a584828501611b28565b60a08301525060c082013567ffffffffffffffff8111156123c9576123c8611a97565b5b6123d584828501611b28565b60c08301525060e082013567ffffffffffffffff8111156123f9576123f8611a97565b5b61240584828501611b28565b60e08301525061010082013567ffffffffffffffff81111561242a57612429611a97565b5b61243684828501611b28565b6101008301525061012082013567ffffffffffffffff81111561245c5761245b611a97565b5b61246884828501611b28565b6101208301525092915050565b60006020828403121561248b5761248a6119fc565b5b600082013567ffffffffffffffff8111156124a9576124a8611a01565b5b6124b584828501612267565b91505092915050565b60008160601b9050919050565b60006124d6826124be565b9050919050565b60006124e8826124cb565b9050919050565b6125006124fb82611ec7565b6124dd565b82525050565b600081905092915050565b600061251c82611e1f565b6125268185612506565b9350612536818560208601611e3b565b80840191505092915050565b600061254e828a6124ef565b60148201915061255e82896124ef565b60148201915061256e8288612511565b915061257a8287612511565b91506125868286612511565b91506125928285612511565b915061259e8284612511565b915081905098975050505050505050565b7f4e487b7100000000000000000000000000000000000000000000000000000000600052602260045260246000fd5b600060028204905060018216806125f657607f821691505b6020821081141561260a576126096125af565b5b5091905056fea2646970667358221220d1ae496b58ea3a4ef2a8572981231a1a407ca00378c49fd673aa081b8191a02764736f6c63430008090033",
  "linkReferences": {},
  "deployedLinkReferences": {}
}