{
  "_format": "hh-sol-artifact-1",
  "contractName": "OpenContent",
  "sourceName": "contracts/OpenContent.sol",
  "abi": [
    {
      "anonymous": false,
      "inputs": [
        {
          "indexed": false,
          "internalType": "bytes32",
          "name": "postId",
          "type": "bytes32"
        },
        {
          "indexed": false,
          "internalType": "string",
          "name": "nameOfPost",
          "type": "string"
        },
        {
          "indexed": false,
          "internalType": "string",
          "name": "postDescription",
          "type": "string"
        },
        {
          "indexed": false,
          "internalType": "string",
          "name": "thumbnailUrl",
          "type": "string"
        },
        {
          "indexed": false,
          "internalType": "string",
          "name": "postContent",
          "type": "string"
        },
        {
          "indexed": false,
          "internalType": "string",
          "name": "date",
          "type": "string"
        },
        {
          "indexed": false,
          "internalType": "string",
          "name": "audioTitle",
          "type": "string"
        },
        {
          "indexed": false,
          "internalType": "string",
          "name": "audioUrl",
          "type": "string"
        },
        {
          "indexed": false,
          "internalType": "string",
          "name": "audioThumbnail",
          "type": "string"
        },
        {
          "indexed": false,
          "internalType": "string",
          "name": "authorName",
          "type": "string"
        },
        {
          "indexed": false,
          "internalType": "string",
          "name": "authorThumbnail",
          "type": "string"
        },
        {
          "indexed": false,
          "internalType": "address",
          "name": "owner",
          "type": "address"
        }
      ],
      "name": "AudioPost",
      "type": "event"
    },
    {
      "anonymous": false,
      "inputs": [
        {
          "indexed": false,
          "internalType": "bytes32",
          "name": "postId",
          "type": "bytes32"
        },
        {
          "indexed": false,
          "internalType": "string",
          "name": "nameOfPost",
          "type": "string"
        },
        {
          "indexed": false,
          "internalType": "string",
          "name": "postDescription",
          "type": "string"
        },
        {
          "indexed": false,
          "internalType": "string",
          "name": "thumbnailUrl",
          "type": "string"
        },
        {
          "indexed": false,
          "internalType": "string",
          "name": "postContent",
          "type": "string"
        },
        {
          "indexed": false,
          "internalType": "string",
          "name": "date",
          "type": "string"
        },
        {
          "indexed": false,
          "internalType": "string",
          "name": "authorName",
          "type": "string"
        },
        {
          "indexed": false,
          "internalType": "string",
          "name": "authorThumbnail",
          "type": "string"
        },
        {
          "indexed": false,
          "internalType": "address",
          "name": "owner",
          "type": "address"
        }
      ],
      "name": "BlogPost",
      "type": "event"
    },
    {
      "anonymous": false,
      "inputs": [
        {
          "indexed": false,
          "internalType": "bytes32",
          "name": "postId",
          "type": "bytes32"
        },
        {
          "indexed": false,
          "internalType": "string",
          "name": "nameOfPost",
          "type": "string"
        },
        {
          "indexed": false,
          "internalType": "string",
          "name": "postDescription",
          "type": "string"
        },
        {
          "indexed": false,
          "internalType": "string",
          "name": "thumbnailUrl",
          "type": "string"
        },
        {
          "indexed": false,
          "internalType": "string",
          "name": "postContent",
          "type": "string"
        },
        {
          "indexed": false,
          "internalType": "string",
          "name": "date",
          "type": "string"
        },
        {
          "indexed": false,
          "internalType": "string",
          "name": "videoTitle",
          "type": "string"
        },
        {
          "indexed": false,
          "internalType": "string",
          "name": "videoUrl",
          "type": "string"
        },
        {
          "indexed": false,
          "internalType": "string",
          "name": "videoThumbnail",
          "type": "string"
        },
        {
          "indexed": false,
          "internalType": "string",
          "name": "authorName",
          "type": "string"
        },
        {
          "indexed": false,
          "internalType": "string",
          "name": "authorThumbnail",
          "type": "string"
        },
        {
          "indexed": false,
          "internalType": "address",
          "name": "owner",
          "type": "address"
        }
      ],
      "name": "VlogPost",
      "type": "event"
    },
    {
      "inputs": [
        {
          "internalType": "bytes32",
          "name": "",
          "type": "bytes32"
        }
      ],
      "name": "idToNewAudioPost",
      "outputs": [
        {
          "internalType": "bytes32",
          "name": "postId",
          "type": "bytes32"
        },
        {
          "internalType": "string",
          "name": "nameOfPost",
          "type": "string"
        },
        {
          "internalType": "string",
          "name": "postDescription",
          "type": "string"
        },
        {
          "internalType": "string",
          "name": "thumbnailUrl",
          "type": "string"
        },
        {
          "internalType": "string",
          "name": "postContent",
          "type": "string"
        },
        {
          "internalType": "string",
          "name": "date",
          "type": "string"
        },
        {
          "internalType": "string",
          "name": "audioTitle",
          "type": "string"
        },
        {
          "internalType": "string",
          "name": "audioUrl",
          "type": "string"
        },
        {
          "internalType": "string",
          "name": "audioThumbnail",
          "type": "string"
        },
        {
          "internalType": "string",
          "name": "authorName",
          "type": "string"
        },
        {
          "internalType": "string",
          "name": "authorThumbnail",
          "type": "string"
        },
        {
          "internalType": "address",
          "name": "owner",
          "type": "address"
        }
      ],
      "stateMutability": "view",
      "type": "function"
    },
    {
      "inputs": [
        {
          "internalType": "bytes32",
          "name": "",
          "type": "bytes32"
        }
      ],
      "name": "idToNewBlogPost",
      "outputs": [
        {
          "internalType": "bytes32",
          "name": "postId",
          "type": "bytes32"
        },
        {
          "internalType": "string",
          "name": "nameOfPost",
          "type": "string"
        },
        {
          "internalType": "string",
          "name": "postDescription",
          "type": "string"
        },
        {
          "internalType": "string",
          "name": "thumbnailUrl",
          "type": "string"
        },
        {
          "internalType": "string",
          "name": "postContent",
          "type": "string"
        },
        {
          "internalType": "string",
          "name": "date",
          "type": "string"
        },
        {
          "internalType": "string",
          "name": "authorName",
          "type": "string"
        },
        {
          "internalType": "string",
          "name": "authorThumbnail",
          "type": "string"
        },
        {
          "internalType": "address",
          "name": "owner",
          "type": "address"
        }
      ],
      "stateMutability": "view",
      "type": "function"
    },
    {
      "inputs": [
        {
          "internalType": "bytes32",
          "name": "",
          "type": "bytes32"
        }
      ],
      "name": "idToNewVlogPost",
      "outputs": [
        {
          "internalType": "string",
          "name": "nameOfPost",
          "type": "string"
        },
        {
          "internalType": "string",
          "name": "postDescription",
          "type": "string"
        },
        {
          "internalType": "string",
          "name": "thumbnailUrl",
          "type": "string"
        },
        {
          "internalType": "string",
          "name": "postContent",
          "type": "string"
        },
        {
          "internalType": "string",
          "name": "date",
          "type": "string"
        },
        {
          "internalType": "string",
          "name": "videoTitle",
          "type": "string"
        },
        {
          "internalType": "string",
          "name": "videoUrl",
          "type": "string"
        },
        {
          "internalType": "string",
          "name": "videoThumbnail",
          "type": "string"
        },
        {
          "internalType": "string",
          "name": "authorName",
          "type": "string"
        },
        {
          "internalType": "string",
          "name": "authorThumbnail",
          "type": "string"
        },
        {
          "internalType": "address",
          "name": "owner",
          "type": "address"
        }
      ],
      "stateMutability": "view",
      "type": "function"
    }
  ],
  "bytecode": "0x608060405234801561001057600080fd5b5061154a806100206000396000f3fe608060405234801561001057600080fd5b50600436106100415760003560e01c8063208b29bd1461004657806343c2572f14610080578063e502eed1146100bb575b600080fd5b610060600480360381019061005b91906110ee565b6100f3565b6040516100779b9a999897969594939291906111f5565b60405180910390f35b61009a600480360381019061009591906110ee565b6106bd565b6040516100b29c9b9a999897969594939291906112f5565b60405180910390f35b6100d560048036038101906100d091906110ee565b610c8d565b6040516100ea999897969594939291906113f5565b60405180910390f35b6002602052806000526040600020600091509050806000018054610116906114e2565b80601f0160208091040260200160405190810160405280929190818152602001828054610142906114e2565b801561018f5780601f106101645761010080835404028352916020019161018f565b820191906000526020600020905b81548152906001019060200180831161017257829003601f168201915b5050505050908060010180546101a4906114e2565b80601f01602080910402602001604051908101604052809291908181526020018280546101d0906114e2565b801561021d5780601f106101f25761010080835404028352916020019161021d565b820191906000526020600020905b81548152906001019060200180831161020057829003601f168201915b505050505090806002018054610232906114e2565b80601f016020809104026020016040519081016040528092919081815260200182805461025e906114e2565b80156102ab5780601f10610280576101008083540402835291602001916102ab565b820191906000526020600020905b81548152906001019060200180831161028e57829003601f168201915b5050505050908060030180546102c0906114e2565b80601f01602080910402602001604051908101604052809291908181526020018280546102ec906114e2565b80156103395780601f1061030e57610100808354040283529160200191610339565b820191906000526020600020905b81548152906001019060200180831161031c57829003601f168201915b50505050509080600401805461034e906114e2565b80601f016020809104026020016040519081016040528092919081815260200182805461037a906114e2565b80156103c75780601f1061039c576101008083540402835291602001916103c7565b820191906000526020600020905b8154815290600101906020018083116103aa57829003601f168201915b5050505050908060050180546103dc906114e2565b80601f0160208091040260200160405190810160405280929190818152602001828054610408906114e2565b80156104555780601f1061042a57610100808354040283529160200191610455565b820191906000526020600020905b81548152906001019060200180831161043857829003601f168201915b50505050509080600601805461046a906114e2565b80601f0160208091040260200160405190810160405280929190818152602001828054610496906114e2565b80156104e35780601f106104b8576101008083540402835291602001916104e3565b820191906000526020600020905b8154815290600101906020018083116104c657829003601f168201915b5050505050908060070180546104f8906114e2565b80601f0160208091040260200160405190810160405280929190818152602001828054610524906114e2565b80156105715780601f1061054657610100808354040283529160200191610571565b820191906000526020600020905b81548152906001019060200180831161055457829003601f168201915b505050505090806008018054610586906114e2565b80601f01602080910402602001604051908101604052809291908181526020018280546105b2906114e2565b80156105ff5780601f106105d4576101008083540402835291602001916105ff565b820191906000526020600020905b8154815290600101906020018083116105e257829003601f168201915b505050505090806009018054610614906114e2565b80601f0160208091040260200160405190810160405280929190818152602001828054610640906114e2565b801561068d5780601f106106625761010080835404028352916020019161068d565b820191906000526020600020905b81548152906001019060200180831161067057829003601f168201915b50505050509080600a0160009054906101000a900473ffffffffffffffffffffffffffffffffffffffff1690508b565b60006020528060005260406000206000915090508060000154908060010180546106e6906114e2565b80601f0160208091040260200160405190810160405280929190818152602001828054610712906114e2565b801561075f5780601f106107345761010080835404028352916020019161075f565b820191906000526020600020905b81548152906001019060200180831161074257829003601f168201915b505050505090806002018054610774906114e2565b80601f01602080910402602001604051908101604052809291908181526020018280546107a0906114e2565b80156107ed5780601f106107c2576101008083540402835291602001916107ed565b820191906000526020600020905b8154815290600101906020018083116107d057829003601f168201915b505050505090806003018054610802906114e2565b80601f016020809104026020016040519081016040528092919081815260200182805461082e906114e2565b801561087b5780601f106108505761010080835404028352916020019161087b565b820191906000526020600020905b81548152906001019060200180831161085e57829003601f168201915b505050505090806004018054610890906114e2565b80601f01602080910402602001604051908101604052809291908181526020018280546108bc906114e2565b80156109095780601f106108de57610100808354040283529160200191610909565b820191906000526020600020905b8154815290600101906020018083116108ec57829003601f168201915b50505050509080600501805461091e906114e2565b80601f016020809104026020016040519081016040528092919081815260200182805461094a906114e2565b80156109975780601f1061096c57610100808354040283529160200191610997565b820191906000526020600020905b81548152906001019060200180831161097a57829003601f168201915b5050505050908060060180546109ac906114e2565b80601f01602080910402602001604051908101604052809291908181526020018280546109d8906114e2565b8015610a255780601f106109fa57610100808354040283529160200191610a25565b820191906000526020600020905b815481529060010190602001808311610a0857829003601f168201915b505050505090806007018054610a3a906114e2565b80601f0160208091040260200160405190810160405280929190818152602001828054610a66906114e2565b8015610ab35780601f10610a8857610100808354040283529160200191610ab3565b820191906000526020600020905b815481529060010190602001808311610a9657829003601f168201915b505050505090806008018054610ac8906114e2565b80601f0160208091040260200160405190810160405280929190818152602001828054610af4906114e2565b8015610b415780601f10610b1657610100808354040283529160200191610b41565b820191906000526020600020905b815481529060010190602001808311610b2457829003601f168201915b505050505090806009018054610b56906114e2565b80601f0160208091040260200160405190810160405280929190818152602001828054610b82906114e2565b8015610bcf5780601f10610ba457610100808354040283529160200191610bcf565b820191906000526020600020905b815481529060010190602001808311610bb257829003601f168201915b50505050509080600a018054610be4906114e2565b80601f0160208091040260200160405190810160405280929190818152602001828054610c10906114e2565b8015610c5d5780601f10610c3257610100808354040283529160200191610c5d565b820191906000526020600020905b815481529060010190602001808311610c4057829003601f168201915b50505050509080600b0160009054906101000a900473ffffffffffffffffffffffffffffffffffffffff1690508c565b6001602052806000526040600020600091509050806000015490806001018054610cb6906114e2565b80601f0160208091040260200160405190810160405280929190818152602001828054610ce2906114e2565b8015610d2f5780601f10610d0457610100808354040283529160200191610d2f565b820191906000526020600020905b815481529060010190602001808311610d1257829003601f168201915b505050505090806002018054610d44906114e2565b80601f0160208091040260200160405190810160405280929190818152602001828054610d70906114e2565b8015610dbd5780601f10610d9257610100808354040283529160200191610dbd565b820191906000526020600020905b815481529060010190602001808311610da057829003601f168201915b505050505090806003018054610dd2906114e2565b80601f0160208091040260200160405190810160405280929190818152602001828054610dfe906114e2565b8015610e4b5780601f10610e2057610100808354040283529160200191610e4b565b820191906000526020600020905b815481529060010190602001808311610e2e57829003601f168201915b505050505090806004018054610e60906114e2565b80601f0160208091040260200160405190810160405280929190818152602001828054610e8c906114e2565b8015610ed95780601f10610eae57610100808354040283529160200191610ed9565b820191906000526020600020905b815481529060010190602001808311610ebc57829003601f168201915b505050505090806005018054610eee906114e2565b80601f0160208091040260200160405190810160405280929190818152602001828054610f1a906114e2565b8015610f675780601f10610f3c57610100808354040283529160200191610f67565b820191906000526020600020905b815481529060010190602001808311610f4a57829003601f168201915b505050505090806006018054610f7c906114e2565b80601f0160208091040260200160405190810160405280929190818152602001828054610fa8906114e2565b8015610ff55780601f10610fca57610100808354040283529160200191610ff5565b820191906000526020600020905b815481529060010190602001808311610fd857829003601f168201915b50505050509080600701805461100a906114e2565b80601f0160208091040260200160405190810160405280929190818152602001828054611036906114e2565b80156110835780601f1061105857610100808354040283529160200191611083565b820191906000526020600020905b81548152906001019060200180831161106657829003601f168201915b5050505050908060080160009054906101000a900473ffffffffffffffffffffffffffffffffffffffff16905089565b600080fd5b6000819050919050565b6110cb816110b8565b81146110d657600080fd5b50565b6000813590506110e8816110c2565b92915050565b600060208284031215611104576111036110b3565b5b6000611112848285016110d9565b91505092915050565b600081519050919050565b600082825260208201905092915050565b60005b8381101561115557808201518184015260208101905061113a565b83811115611164576000848401525b50505050565b6000601f19601f8301169050919050565b60006111868261111b565b6111908185611126565b93506111a0818560208601611137565b6111a98161116a565b840191505092915050565b600073ffffffffffffffffffffffffffffffffffffffff82169050919050565b60006111df826111b4565b9050919050565b6111ef816111d4565b82525050565b6000610160820190508181036000830152611210818e61117b565b90508181036020830152611224818d61117b565b90508181036040830152611238818c61117b565b9050818103606083015261124c818b61117b565b90508181036080830152611260818a61117b565b905081810360a0830152611274818961117b565b905081810360c0830152611288818861117b565b905081810360e083015261129c818761117b565b90508181036101008301526112b1818661117b565b90508181036101208301526112c6818561117b565b90506112d66101408301846111e6565b9c9b505050505050505050505050565b6112ef816110b8565b82525050565b60006101808201905061130b600083018f6112e6565b818103602083015261131d818e61117b565b90508181036040830152611331818d61117b565b90508181036060830152611345818c61117b565b90508181036080830152611359818b61117b565b905081810360a083015261136d818a61117b565b905081810360c0830152611381818961117b565b905081810360e0830152611395818861117b565b90508181036101008301526113aa818761117b565b90508181036101208301526113bf818661117b565b90508181036101408301526113d4818561117b565b90506113e46101608301846111e6565b9d9c50505050505050505050505050565b60006101208201905061140b600083018c6112e6565b818103602083015261141d818b61117b565b90508181036040830152611431818a61117b565b90508181036060830152611445818961117b565b90508181036080830152611459818861117b565b905081810360a083015261146d818761117b565b905081810360c0830152611481818661117b565b905081810360e0830152611495818561117b565b90506114a56101008301846111e6565b9a9950505050505050505050565b7f4e487b7100000000000000000000000000000000000000000000000000000000600052602260045260246000fd5b600060028204905060018216806114fa57607f821691505b6020821081141561150e5761150d6114b3565b5b5091905056fea2646970667358221220c01caaf4d36ace59a1c8b37331c2bfad17d0aba843749a6fb481c2d58aac01dd64736f6c63430008090033",
  "linkReferences": {},
  "deployedLinkReferences": {}
}