{
  "_format": "hh-sol-artifact-1",
  "contractName": "OpenContent",
  "sourceName": "contracts/OpenContent.sol",
  "abi": [
    {
      "anonymous": false,
      "inputs": [
        {
          "indexed": false,
          "internalType": "string[]",
          "name": "data",
          "type": "string[]"
        },
        {
          "indexed": false,
          "internalType": "address",
          "name": "owner",
          "type": "address"
        }
      ],
      "name": "AudioPost",
      "type": "event"
    },
    {
      "anonymous": false,
      "inputs": [
        {
          "indexed": false,
          "internalType": "string[]",
          "name": "data",
          "type": "string[]"
        },
        {
          "indexed": false,
          "internalType": "address",
          "name": "owner",
          "type": "address"
        }
      ],
      "name": "BlogPost",
      "type": "event"
    },
    {
      "anonymous": false,
      "inputs": [
        {
          "indexed": false,
          "internalType": "string[]",
          "name": "data",
          "type": "string[]"
        },
        {
          "indexed": false,
          "internalType": "address",
          "name": "owner",
          "type": "address"
        }
      ],
      "name": "VideoPost",
      "type": "event"
    },
    {
      "inputs": [
        {
          "internalType": "string[]",
          "name": "data",
          "type": "string[]"
        }
      ],
      "name": "createNewAudioPost",
      "outputs": [],
      "stateMutability": "nonpayable",
      "type": "function"
    },
    {
      "inputs": [
        {
          "internalType": "string[]",
          "name": "data",
          "type": "string[]"
        }
      ],
      "name": "createNewBlogPost",
      "outputs": [],
      "stateMutability": "nonpayable",
      "type": "function"
    },
    {
      "inputs": [
        {
          "internalType": "string[]",
          "name": "data",
          "type": "string[]"
        }
      ],
      "name": "createNewVlogPost",
      "outputs": [],
      "stateMutability": "nonpayable",
      "type": "function"
    }
  ],
  "bytecode": "0x608060405234801561001057600080fd5b50610440806100206000396000f3fe608060405234801561001057600080fd5b50600436106100415760003560e01c8063098f2e041461004657806322dd44f0146100625780635621c08e1461007e575b600080fd5b610060600480360381019061005b91906101c6565b61009a565b005b61007c600480360381019061007791906101c6565b6100d9565b005b610098600480360381019061009391906101c6565b610118565b005b7f6b5e860817bb7ad3a43e5b505e0d1b9e708dba17cedec56b966f5c898fa5d32f8282336040516100cd939291906103d8565b60405180910390a15050565b7fdfc2159875427d350c2f8b0ff5fe3be062a722acd9febabdb8d0d8b75fd7ab6882823360405161010c939291906103d8565b60405180910390a15050565b7f99f3643d49ac8421cdf157a416e9c653e29c8b4e6d6500ca19b189919cbe8c5682823360405161014b939291906103d8565b60405180910390a15050565b600080fd5b600080fd5b600080fd5b600080fd5b600080fd5b60008083601f84011261018657610185610161565b5b8235905067ffffffffffffffff8111156101a3576101a2610166565b5b6020830191508360208202830111156101bf576101be61016b565b5b9250929050565b600080602083850312156101dd576101dc610157565b5b600083013567ffffffffffffffff8111156101fb576101fa61015c565b5b61020785828601610170565b92509250509250929050565b600082825260208201905092915050565b6000819050919050565b600082825260208201905092915050565b82818337600083830152505050565b6000601f19601f8301169050919050565b600061026b838561022e565b935061027883858461023f565b6102818361024e565b840190509392505050565b600061029984848461025f565b90509392505050565b600080fd5b600080fd5b600080fd5b600080833560016020038436030381126102ce576102cd6102ac565b5b83810192508235915060208301925067ffffffffffffffff8211156102f6576102f56102a2565b5b60018202360384131561030c5761030b6102a7565b5b509250929050565b6000602082019050919050565b600061032d8385610213565b93508360208402850161033f84610224565b8060005b8781101561038557848403895261035a82846102b1565b61036586828461028c565b955061037084610314565b935060208b019a505050600181019050610343565b50829750879450505050509392505050565b600073ffffffffffffffffffffffffffffffffffffffff82169050919050565b60006103c282610397565b9050919050565b6103d2816103b7565b82525050565b600060408201905081810360008301526103f3818587610321565b905061040260208301846103c9565b94935050505056fea2646970667358221220dd1ed22a544cbc942a1cc172887262cc118f41e343a3f5bfc6e51b9a6c82d0cb64736f6c63430008090033",
  "linkReferences": {},
  "deployedLinkReferences": {}
}